{
  "contractName": "EtherWallet",
  "abi": [
    {
      "inputs": [],
      "stateMutability": "nonpayable",
      "type": "constructor"
    },
    {
      "inputs": [],
      "name": "owner",
      "outputs": [
        {
          "internalType": "address payable",
          "name": "",
          "type": "address"
        }
      ],
      "stateMutability": "view",
      "type": "function",
      "constant": true
    },
    {
      "inputs": [],
      "name": "getBalance",
      "outputs": [
        {
          "internalType": "uint256",
          "name": "",
          "type": "uint256"
        }
      ],
      "stateMutability": "view",
      "type": "function",
      "constant": true
    },
    {
      "inputs": [],
      "name": "deposit",
      "outputs": [],
      "stateMutability": "payable",
      "type": "function",
      "payable": true
    },
    {
      "inputs": [
        {
          "internalType": "uint256",
          "name": "_amount",
          "type": "uint256"
        }
      ],
      "name": "withdraw",
      "outputs": [],
      "stateMutability": "nonpayable",
      "type": "function"
    },
    {
      "inputs": [
        {
          "internalType": "address payable",
          "name": "_receiver",
          "type": "address"
        },
        {
          "internalType": "uint256",
          "name": "_amount",
          "type": "uint256"
        }
      ],
      "name": "transfer",
      "outputs": [],
      "stateMutability": "nonpayable",
      "type": "function"
    }
  ],
  "bytecode": "0x608060405234801561001057600080fd5b50336000806101000a81548173ffffffffffffffffffffffffffffffffffffffff021916908373ffffffffffffffffffffffffffffffffffffffff160217905550610722806100606000396000f3fe60806040526004361061004a5760003560e01c806312065fe01461004f5780632e1a7d4d1461007a5780638da5cb5b146100a3578063a9059cbb146100ce578063d0e30db0146100f7575b600080fd5b34801561005b57600080fd5b50610064610101565b60405161007191906105d9565b60405180910390f35b34801561008657600080fd5b506100a1600480360381019061009c91906104ed565b610198565b005b3480156100af57600080fd5b506100b86102b3565b6040516100c5919061057e565b60405180910390f35b3480156100da57600080fd5b506100f560048036038101906100f091906104ad565b6102d7565b005b6100ff6103f3565b005b60008060009054906101000a900473ffffffffffffffffffffffffffffffffffffffff1673ffffffffffffffffffffffffffffffffffffffff163373ffffffffffffffffffffffffffffffffffffffff1614610192576040517f08c379a000000000000000000000000000000000000000000000000000000000815260040161018990610599565b60405180910390fd5b47905090565b60008054906101000a900473ffffffffffffffffffffffffffffffffffffffff1673ffffffffffffffffffffffffffffffffffffffff163373ffffffffffffffffffffffffffffffffffffffff1614610226576040517f08c379a000000000000000000000000000000000000000000000000000000000815260040161021d90610599565b60405180910390fd5b47811115610269576040517f08c379a0000000000000000000000000000000000000000000000000000000008152600401610260906105b9565b60405180910390fd5b3373ffffffffffffffffffffffffffffffffffffffff166108fc829081150290604051600060405180830381858888f193505050501580156102af573d6000803e3d6000fd5b5050565b60008054906101000a900473ffffffffffffffffffffffffffffffffffffffff1681565b60008054906101000a900473ffffffffffffffffffffffffffffffffffffffff1673ffffffffffffffffffffffffffffffffffffffff163373ffffffffffffffffffffffffffffffffffffffff1614610365576040517f08c379a000000000000000000000000000000000000000000000000000000000815260040161035c90610599565b60405180910390fd5b478111156103a8576040517f08c379a000000000000000000000000000000000000000000000000000000000815260040161039f906105b9565b60405180910390fd5b8173ffffffffffffffffffffffffffffffffffffffff166108fc829081150290604051600060405180830381858888f193505050501580156103ee573d6000803e3d6000fd5b505050565b60008054906101000a900473ffffffffffffffffffffffffffffffffffffffff1673ffffffffffffffffffffffffffffffffffffffff163373ffffffffffffffffffffffffffffffffffffffff1614610481576040517f08c379a000000000000000000000000000000000000000000000000000000000815260040161047890610599565b60405180910390fd5b565b600081359050610492816106be565b92915050565b6000813590506104a7816106d5565b92915050565b600080604083850312156104c4576104c3610641565b5b60006104d285828601610483565b92505060206104e385828601610498565b9150509250929050565b60006020828403121561050357610502610641565b5b600061051184828501610498565b91505092915050565b61052381610605565b82525050565b60006105366016836105f4565b915061054182610646565b602082019050919050565b60006105596026836105f4565b91506105648261066f565b604082019050919050565b61057881610637565b82525050565b6000602082019050610593600083018461051a565b92915050565b600060208201905081810360008301526105b281610529565b9050919050565b600060208201905081810360008301526105d28161054c565b9050919050565b60006020820190506105ee600083018461056f565b92915050565b600082825260208201905092915050565b600061061082610617565b9050919050565b600073ffffffffffffffffffffffffffffffffffffffff82169050919050565b6000819050919050565b600080fd5b7f596f7520617265204e4f5420746865206f776e65722100000000000000000000600082015250565b7f54686520636f6e747261637420444f45534e54206861766520656e6f7567682060008201527f6574686572210000000000000000000000000000000000000000000000000000602082015250565b6106c781610605565b81146106d257600080fd5b50565b6106de81610637565b81146106e957600080fd5b5056fea26469706673582212208a56c4a8d65b3ecf278edb893c87806b7810c8e2bb2759c10d388de73707c82864736f6c63430008060033",
  "immutableReferences": {},
  "source": "// SPDX-License-Identifier: MIT\npragma solidity ^0.8.0;\n\ncontract EtherWallet{\n    \n    address payable public owner;\n    \n    constructor() {\n        owner = payable(msg.sender);\n    }\n    \n    modifier onlyOwner{\n        require(msg.sender == owner, 'You are NOT the owner!');\n        _;\n    }\n    \n    // This returns the CONTRACTS's ether balance, NOT this USER's ether balance!\n    function getBalance() public view onlyOwner returns (uint) {\n        return address(this).balance;\n    }\n    \n    // no need to type anything! \n    function deposit() public payable onlyOwner {\n    }\n    \n    // Remember to type in \"10**18\" to withdraw 1 ether.\n    // Transfer ether FROM smart contract TO owner.\n    function withdraw(uint _amount) public onlyOwner {\n        require(_amount <= address(this).balance, 'The contract DOESNT have enough ether!');\n        payable(msg.sender).transfer(_amount);\n    }\n    \n    // Remember to type in \"10**18\" to transfer 1 ether.\n    // Transfer ether FROM smart contract TO a receiver.\n    function transfer(address payable _receiver, uint _amount) public onlyOwner {\n        require(_amount <= address(this).balance, 'The contract DOESNT have enough ether!');\n        _receiver.transfer(_amount);\n    }\n    \n}\n\n\n//   10**18 = 1000000000000000000\n\n// Wrong example:\n// This will transfer ether FROM owner, NOT from smart contract, to _receiver.\n// When using 'msg.sender', it means ether will be drawn from msg.sender, not the smart contract.\n    // function transfer(address payable _receiver) public payable onlyOwner {\n    //     _receiver.transfer(msg.value);\n    // }",
  "sourcePath": "/Users/tim/_Dapp_ex/ETB4_EtherWallet/src/contracts/EtherWallet.sol",
  "compiler": {
    "name": "solc",
    "version": "0.8.6+commit.11564f7e.Emscripten.clang"
  },
  "schemaVersion": "3.4.1",
  "updatedAt": "2021-07-20T17:53:40.511Z",
  "networkType": "ethereum",
  "devdoc": {
    "kind": "dev",
    "methods": {},
    "version": 1
  },
  "userdoc": {
    "kind": "user",
    "methods": {},
    "version": 1
  }
}